:020000020000FC
:040000000C947400E8
:040038000C943400F0
:100068000F934FB670644FBE0F911895F894A895EA
:1000780004B7007004BF009160000861009360003D
:1000880000E0009360007894089573D27AD27727BD
:1000980088270FE204B90DE105B90FE308B97F77A6
:1000A80002E50CBD01E00DBD05E005BD02E004BDA3
:1000B80000E207BD00916E00026000936E00789424
:1000C8000895F89400E00093C50003E30093C4008A
:1000D80006E00093C20008E10093C10078940895F7
:1000E80008E00EBF0FEF0DBFC1DFCFDFEADF99D108
:1000F80038D27AD10AD1D7D07BD02AC010E3C2D067
:1001080011E3C0D012E3BED013E3BCD014E3BAD0DD
:1001180078D010D06DD014E3B5D013E3B3D012E388
:10012800B1D011E3AFD010E3ADD06BD003D0BBD0CA
:100138005FD0E4CF0AE015D20A95E9F70895F1E017
:10014800E0E53AD15ED0FFCF303132333435361A5C
:1001580005E000930F01F1D1F0F3B1E0A0E029E050
:100168005AD21D932A95E1F728E055D21C32E9F7B7
:100178002A95D9F7B1E0A9E026E04DD21D932A953A
:10018800E1F790D101D0E7CF8ED032D01091100195
:1001980079D01091110176D01AE374D01091020130
:1001A80071D0109103016ED01AE36CD01091040144
:1001B80069D01091050166D024D0089580D018D058
:1001C800109109015FD010910A015CD01AE35AD04E
:1001D80010910B0157D010910C0154D01AE352D052
:1001E80010910D014FD010910E014CD00AD00895F6
:1001F800B1E0ACE1D1E0C0E811271D932197E9F700
:100208000895B1E0ACE1C3E00091120100931B0135
:10021800D0E80FD0299810E0139513953ED110E13E
:100228003CD1299A1D9139D1DA95E1F7CA9581F720
:100238000895299810EB00911B01100F177B039567
:1002480000931B012AD108951091130133E0D1E0E6
:10025800CCE1C10F08F4D395D0931901C0931A01CA
:1002680020911401059109932A95E1F73A9509F42B
:100278000895D0911901C0911A0140E8C40F60F7A0
:10028800D395EACF53D0E0DF009114011091130108
:10029800100F13951395139510931301089500E00B
:1002A800009312011BC001E00093120117C002E085
:1002B8000093120113C003E0009312010FC004E081
:1002C800009312010BC005E00093120107C006E07D
:1002D8000093120103C007E0009312010027009366
:1002E800130107D0089510911301100F10931301F3
:1002F8000895299810E013951395CFD010E1CDD02B
:100308000091120196DF299A0895F6E0E4E7059135
:10031800059105910093140105910093150105912C
:100328000093160105910093170108950091160195
:10033800101B1093180128F0009117010A95011B52
:1003480008F40895F6E0E4E706E02DD00491009360
:100358001401112379F4F6E0E4E706E024D00491CF
:1003680000931401F6E0E4E71091170106E0010F8D
:100378001AD008952227BB27AA270591A00FB21FDC
:100388001A95D9F7049100931401F6E0E4E7109167
:10039800170106E0010F07D013E031961A95E9F727
:1003A8001197D1F70895BF93AF93BB27A02FEA0FFA
:1003B800FB1FAF91BF9108951F9315911A3111F446
:1003C8001F9108951030C9F3FF93EF935BDFEF910E
:1003D800FF91F3CF299A01D00895D4E0C0E2159196
:1003E8005CD02197E1F70895002700931B01C8E02E
:1003F800D4E81FDF299810E050D010E14ED0299A98
:1004080011274BD0DA95E1F7CA9591F70895299805
:100418001FEA43D0299A089529981EEA3ED0299ABE
:1004280008952A9A2998289A9CD028989AD0289A88
:100438002A981EEA32D018EA30D01FE32ED013EDE6
:100448002CD010E02AD010E428D011EA26D018ECDD
:1004580024D01AED22D012E120D011E81ED01FE4DA
:100468001CD019ED1AD011EF18D01BED16D010E4DE
:1004780014D01EE212D014EA10D016EA0ED01DE8ED
:100488000CD01FEC0AD010E208D010E006D016EA13
:1004980004D01FEA02D0299A08951EBD0DB507FFA2
:1004A800FDCF0895D1E0C0E1B091000100E3B01B99
:1004B800B295A0910101A01BBA2B1B2F20910F010F
:1004C8002223B1F077FF0AC013951BD0143209F428
:1004D80011272A95C9F7309B13950AC0112319F0E3
:1004E8001A9519D001C013E22A95C1F7309B1395CC
:1004F8001F93129501D01F911F7060E3160F199377
:1005080008950F9306E6100F08F40F700DF4007F9E
:10051800101B0F9108952F933F93212F312F2F7088
:100528002A3008F402C026E0121B3A3908F402C047
:1005380020E6121B3F912F9108956DD01432E9F7F0
:10054800F5E0E2E626E067D03591132711F008942C
:1005580008952A95C1F7889408954750524D432C21
:100568001A0038E17F7B76FFFECF7F7B3A95D9F77B
:1005780008952CE1B1E0A0E000270D932A95E9F752
:10058800089510E10027B0E0A0E00D931A95E9F76F
:1005980008953F936F93331B69E0111F6A9521F407
:1005A800232F6F913F910895331F321B18F4320F98
:1005B8008894F3CF0894F1CF1F93129501D01F911F
:1005C8001F7060E3160F1A3310F067E0160F0E94D1
:1005D8001603089524E60E94CD02112311F00E940B
:1005E80002031AE01F932F931F912F910E94CD02AF
:1005F8000E9402031F932F931F912F9110630E9453
:10060800160308950091C00007FF03C01091C600AB
:100618000895112708950091C00007FFFCCF10919D
:10062800C60008950091C00005FFFCCF1093C600D6
:10063800089500D01F931DE00E9416031AE004C01D
:100648000E9426031F9310E20E9416031F9108952B
:100658001F931CE2F9CF1F9315911A3111F41F91C2
:1006680008951030C9F3DEDFF7CF00000EF9111836
:10067800300B100D0F0F110F101010100480F0FC2C
:100688007E0E0F070707070F1E7EFCF080FFFFFF97
:1006980000000000000000000000FFFFFF010F3F06
:1006A8007E70F0E0E0E0E0F0707E3F0F013838380F
:1006B800383CFFFFFF00000000000000000000FFC2
:1006C800FFFF0000000000E0E0E0E0E0FFFFFFE0E7
:1006D800E0E0E0E0001E0E0E07070707070F1EFE0A
:1006E800FCF000000000000080C0E0F0783E1F072A
:1006F8000100F0F8FCFEEFE7E3E1E0E0E0E0E0E035
:10070800E0001E0E0E0707070707070F1EFEFCF87E
:1007180000000000001C1C1C1C1E3677F3E1C0788A
:100728007070F0E0E0E0E0E0F070783F1F0F00004C
:1007380000000080C0F0F87C1EFFFFFF000000E012
:10074800F0FCFEDFC7C3C1C0C0C0FFFFFFC0C0C010
:100758000101010101010101010101FFFFFF010187
:100768000100FFFFFF070707070707070707070736
:10077800001F1F0F0E0E0E0E0E1E1C3CF8F8E07820
:100788007070F0E0E0E0E0E0F0707C3F1F0700C030
:10079800F0F83C1E0E0E07070707070F0000FEFFC4
:1007A800FF1C1C0E0E0E0E0E0E1E3CF8F8E0030F7A
:1007B8003F7C78F0E0E0E0E0E070783F1F07070753
:1007C80007070707070707070787E7FF7F1F0000D7
:1007D8000000000000C0F0FC3F0F0701000000000F
:1007E80080E0F8FC3F0F030000000000000000F06C
:1007F800FCFE0E0F070707070F1EFEFCF80080E03F
:10080800F3771F0E0E0C1C1C1C3E77F3E0800F1FA5
:100818003F7870F0E0E0E0E0E070783F1F0FE0F82C
:10082800FC1E0E07070707070F1E3EFCF0C0071F38
:100838001F3C787070707070703838FFFF7F000050
:10084800F0E0E0E0E0E07070783C1F0F0300C0C00B
:0A085800C0C003030303F0F0F0F04A
:00000001FF
